:100000000C942A000C943C000C943C000C943C0092
:100010000C943C000C943C000C943C000C943C0070
:100020000C943C000C943C000C943C000C94D302C7
:100030000C943C000C943C000C943C000C943C0050
:100040000C943C000C943C000C943C000C943C0040
:100050000C943C0011241FBECFE5D8E0DEBFCDBF1D
:1000600010E0A0E6B0E001C01D92AB36B107E1F7A9
:100070000E94FA030C940F040C940000DF93CF93BA
:10008000CDB7DEB727970FB6F894DEBF0FBECDBF52
:1000900089836A834B838981843008F0EEC08A812A
:1000A000883008F0EAC08B81813009F06FC0898107
:1000B000282F30E03F832E838E819F8181309105F0
:1000C00049F12E813F81223031052CF48E819F81B0
:1000D000009761F0D2C02E813F812230310571F14D
:1000E0008E819F8183309105E9F1C7C0AAE3B0E01A
:1000F000EAE3F0E08081482F8A81282F30E081E018
:1001000090E0022E02C0880F991F0A94E2F7842B18
:100110008C93B3C0A7E3B0E0E7E3F0E08081482F21
:100120008A81282F30E081E090E0022E02C0880F03
:10013000991F0A94E2F7842B8C939FC0A4E3B0E04C
:10014000E4E3F0E08081482F8A81282F30E081E0CD
:1001500090E0022E02C0880F991F0A94E2F7842BC8
:100160008C938BC0A1E3B0E0E1E3F0E08081482F05
:100170008A81282F30E081E090E0022E02C0880FB3
:10018000991F0A94E2F7842B8C9377C08B81882384
:1001900009F073C08981282F30E03D832C838C8146
:1001A0009D818130910559F12C813D8122303105AD
:1001B0002CF48C819D81009769F05FC02C813D817A
:1001C0002230310589F18C819D818330910509F4BC
:1001D00040C053C0AAE3B0E0EAE3F0E08081482FDA
:1001E0008A81282F30E081E090E0022E02C0880F43
:1001F000991F0A94E2F7809584238C933EC0A7E36D
:10020000B0E0E7E3F0E08081482F8A81282F30E0DA
:1002100081E090E0022E02C0880F991F0A94E2F755
:10022000809584238C9329C0A4E3B0E0E4E3F0E05C
:100230008081482F8A81282F30E081E090E0022ED3
:1002400002C0880F991F0A94E2F7809584238C934B
:1002500014C0A1E3B0E0E1E3F0E08081482F8A819F
:10026000282F30E081E090E0022E02C0880F991F15
:100270000A94E2F7809584238C9327960FB6F8941E
:10028000DEBF0FBECDBFCF91DF910895DF93CF9337
:10029000CDB7DEB727970FB6F894DEBF0FBECDBF40
:1002A00089836A834B838981843008F0EEC08A8118
:1002B000883008F0EAC08B81882309F074C08981F6
:1002C000282F30E03F832E838E819F8181309105DE
:1002D00059F12E813F81223031052CF48E819F818E
:1002E000009769F0D2C02E813F812230310589F11B
:1002F0008E819F818330910509F440C0C6C0ABE375
:10030000B0E0EBE3F0E08081482F8A81282F30E0D5
:1003100081E090E0022E02C0880F991F0A94E2F754
:10032000809584238C93B1C0A8E3B0E0E8E3F0E0CB
:100330008081482F8A81282F30E081E090E0022ED2
:1003400002C0880F991F0A94E2F7809584238C934A
:100350009CC0A5E3B0E0E5E3F0E08081482F8A810E
:10036000282F30E081E090E0022E02C0880F991F14
:100370000A94E2F7809584238C9387C0A2E3B0E0CF
:10038000E2E3F0E08081482F8A81282F30E081E08D
:1003900090E0022E02C0880F991F0A94E2F7809520
:1003A00084238C9372C08B81813009F06EC0898167
:1003B000282F30E03D832C838C819D8181309105F5
:1003C00049F12C813D81223031052CF48C819D81B5
:1003D000009761F05AC02C813D812230310571F1C6
:1003E0008C819D8183309105E9F14FC0ABE3B0E092
:1003F000EBE3F0E08081482F8A81282F30E081E014
:1004000090E0022E02C0880F991F0A94E2F7842B15
:100410008C933BC0A8E3B0E0E8E3F0E08081482F94
:100420008A81282F30E081E090E0022E02C0880F00
:10043000991F0A94E2F7842B8C9327C0A5E3B0E0C0
:10044000E5E3F0E08081482F8A81282F30E081E0C9
:1004500090E0022E02C0880F991F0A94E2F7842BC5
:100460008C9313C0A2E3B0E0E2E3F0E08081482F78
:100470008A81282F30E081E090E0022E02C0880FB0
:10048000991F0A94E2F7842B8C9327960FB6F89461
:10049000DEBF0FBECDBFCF91DF910895DF93CF9325
:1004A00000D000D00F92CDB7DEB78A836B8319825C
:1004B0008A81843008F06CC08B81883008F068C075
:1004C0008A81282F30E03D832C834C815D8141302F
:1004D000510541F18C819D818230910534F42C814C
:1004E0003D812115310561F055C04C815D8142305F
:1004F000510551F18C819D8183309105B9F14AC03C
:10050000E9E3F0E08081282F30E08B81882F90E0B4
:10051000A90102C0559547958A95E2F7CA018170F5
:10052000898338C0E6E3F0E08081282F30E08B81BA
:10053000882F90E0A90102C0559547958A95E2F76A
:10054000CA018170898326C0E3E3F0E08081282F0F
:1005500030E08B81882F90E0A90102C05595479526
:100560008A95E2F7CA018170898314C0E0E3F0E064
:100570008081282F30E08B81882F90E0A90102C074
:10058000559547958A95E2F7CA018170898302C023
:100590008FEF898389810F900F900F900F900F90AC
:1005A000CF91DF9108951F920F920FB60F921124F1
:1005B0002F933F934F935F936F937F938F939F936B
:1005C000AF93BF93EF93FF93DF93CF93CDB7DEB796
:1005D000809160008F5F8093600080916000823620
:1005E00069F4809161008F5F809361000E94C40371
:1005F00010926000E2E5F0E088E58083CF91DF9122
:10060000FF91EF91BF91AF919F918F917F916F91EA
:100610005F914F913F912F910F900FBE0F901F90C0
:100620001895DF93CF93CDB7DEB7AFE5B0E0EFE538
:10063000F0E0808180688C93E2E5F0E088E58083DB
:10064000A3E5B0E0E3E5F0E0808181608C93A3E571
:10065000B0E0E3E5F0E0808182608C93A3E5B0E058
:10066000E3E5F0E080818B7F8C93A9E5B0E0E9E5DC
:10067000F0E0808181608C93CF91DF910895DF93CA
:10068000CF93CDB7DEB782E062E041E00E943E004A
:10069000A5E3B0E0E5E3F0E0908184E089278C9366
:1006A000CF91DF910895DF93CF93CDB7DEB782E08E
:1006B00067E041E00E943E00A5E3B0E0E5E3F0E042
:1006C000908180E889278C93CF91DF910895DF9303
:1006D000CF93CDB7DEB782E063E041E00E943E00F9
:1006E000A5E3B0E0E5E3F0E0908188E089278C9312
:1006F000CF91DF910895DF93CF9300D000D0CDB795
:10070000DEB789836A835C834B838981282F30E03D
:10071000C901880F991F820F931FFC01EE59FF4FEB
:100720008A8180838981282F30E0C901880F991F31
:10073000820F931FFC01ED59FF4F8B819C819183A8
:1007400080830F900F900F900F90CF91DF910895BD
:10075000DF93CF93CDB7DEB72FE333E080E062E0E5
:10076000A9010E947B0323E533E081E064E0A90155
:100770000E947B0327E633E082E068E0A9010E9443
:100780007B03CF91DF910895DF93CF930F92CDB785
:10079000DEB71982198227C0409161008981282F14
:1007A00030E0C901880F991F820F931FFC01EE5999
:1007B000FF4F9081842F692F0E940304892F882383
:1007C00079F48981282F30E0C901880F991F820FA1
:1007D000931FFC01ED59FF4F0190F081E02D099529
:1007E00089818F5F898389818330B0F20F90CF91A7
:1007F000DF910895DF93CF93CDB7DEB70E94110349
:100800000E94A803FFCF991B79E004C0991F961797
:1008100008F0961B881F7A95C9F780950895F8947B
:02082000FFCF08
:00000001FF
