:100000000C942A000C94CB020C9434000C94340011
:100010000C9434000C9434000C9434000C94340090
:100020000C9434000C9434000C9434000C94340080
:100030000C9434000C9434000C9434000C94340070
:100040000C9434000C9434000C9434000C94340060
:100050000C94340011241FBECFE5D8E0DEBFCDBF25
:100060000E940B030C9419030C940000DF93CF93B0
:10007000CDB7DEB727970FB6F894DEBF0FBECDBF62
:1000800089836A834B838981843008F0EEC08A813A
:10009000883008F0EAC08B81813009F06FC0898117
:1000A000282F30E03F832E838E819F818130910500
:1000B00049F12E813F81223031052CF48E819F81C0
:1000C000009761F0D2C02E813F812230310571F15D
:1000D0008E819F8183309105E9F1C7C0AAE3B0E02A
:1000E000EAE3F0E08081482F8A81282F30E081E028
:1000F00090E0022E02C0880F991F0A94E2F7842B29
:100100008C93B3C0A7E3B0E0E7E3F0E08081482F31
:100110008A81282F30E081E090E0022E02C0880F13
:10012000991F0A94E2F7842B8C939FC0A4E3B0E05C
:10013000E4E3F0E08081482F8A81282F30E081E0DD
:1001400090E0022E02C0880F991F0A94E2F7842BD8
:100150008C938BC0A1E3B0E0E1E3F0E08081482F15
:100160008A81282F30E081E090E0022E02C0880FC3
:10017000991F0A94E2F7842B8C9377C08B81882394
:1001800009F073C08981282F30E03D832C838C8156
:100190009D818130910559F12C813D8122303105BD
:1001A0002CF48C819D81009769F05FC02C813D818A
:1001B0002230310589F18C819D818330910509F4CC
:1001C00040C053C0AAE3B0E0EAE3F0E08081482FEA
:1001D0008A81282F30E081E090E0022E02C0880F53
:1001E000991F0A94E2F7809584238C933EC0A7E37D
:1001F000B0E0E7E3F0E08081482F8A81282F30E0EB
:1002000081E090E0022E02C0880F991F0A94E2F765
:10021000809584238C9329C0A4E3B0E0E4E3F0E06C
:100220008081482F8A81282F30E081E090E0022EE3
:1002300002C0880F991F0A94E2F7809584238C935B
:1002400014C0A1E3B0E0E1E3F0E08081482F8A81AF
:10025000282F30E081E090E0022E02C0880F991F25
:100260000A94E2F7809584238C9327960FB6F8942E
:10027000DEBF0FBECDBFCF91DF910895DF93CF9347
:10028000CDB7DEB727970FB6F894DEBF0FBECDBF50
:1002900089836A834B838981843008F0EEC08A8128
:1002A000883008F0EAC08B81882309F074C0898106
:1002B000282F30E03F832E838E819F8181309105EE
:1002C00059F12E813F81223031052CF48E819F819E
:1002D000009769F0D2C02E813F812230310589F12B
:1002E0008E819F818330910509F440C0C6C0ABE385
:1002F000B0E0EBE3F0E08081482F8A81282F30E0E6
:1003000081E090E0022E02C0880F991F0A94E2F764
:10031000809584238C93B1C0A8E3B0E0E8E3F0E0DB
:100320008081482F8A81282F30E081E090E0022EE2
:1003300002C0880F991F0A94E2F7809584238C935A
:100340009CC0A5E3B0E0E5E3F0E08081482F8A811E
:10035000282F30E081E090E0022E02C0880F991F24
:100360000A94E2F7809584238C9387C0A2E3B0E0DF
:10037000E2E3F0E08081482F8A81282F30E081E09D
:1003800090E0022E02C0880F991F0A94E2F7809530
:1003900084238C9372C08B81813009F06EC0898177
:1003A000282F30E03D832C838C819D818130910505
:1003B00049F12C813D81223031052CF48C819D81C5
:1003C000009761F05AC02C813D812230310571F1D6
:1003D0008C819D8183309105E9F14FC0ABE3B0E0A2
:1003E000EBE3F0E08081482F8A81282F30E081E024
:1003F00090E0022E02C0880F991F0A94E2F7842B26
:100400008C933BC0A8E3B0E0E8E3F0E08081482FA4
:100410008A81282F30E081E090E0022E02C0880F10
:10042000991F0A94E2F7842B8C9327C0A5E3B0E0D0
:10043000E5E3F0E08081482F8A81282F30E081E0D9
:1004400090E0022E02C0880F991F0A94E2F7842BD5
:100450008C9313C0A2E3B0E0E2E3F0E08081482F88
:100460008A81282F30E081E090E0022E02C0880FC0
:10047000991F0A94E2F7842B8C9327960FB6F89471
:10048000DEBF0FBECDBFCF91DF910895DF93CF9335
:1004900000D000D00F92CDB7DEB78A836B8319826C
:1004A0008A81843008F06CC08B81883008F068C085
:1004B0008A81282F30E03D832C834C815D8141303F
:1004C000510541F18C819D818230910534F42C815C
:1004D0003D812115310561F055C04C815D8142306F
:1004E000510551F18C819D8183309105B9F14AC04C
:1004F000E9E3F0E08081282F30E08B81882F90E0C5
:10050000A90102C0559547958A95E2F7CA01817005
:10051000898338C0E6E3F0E08081282F30E08B81CA
:10052000882F90E0A90102C0559547958A95E2F77A
:10053000CA018170898326C0E3E3F0E08081282F1F
:1005400030E08B81882F90E0A90102C05595479536
:100550008A95E2F7CA018170898314C0E0E3F0E074
:100560008081282F30E08B81882F90E0A90102C084
:10057000559547958A95E2F7CA018170898302C033
:100580008FEF898389810F900F900F900F900F90BC
:10059000CF91DF9108951F920F920FB60F92112401
:1005A0008F939F93AF93BF93EF93FF93DF93CF937B
:1005B000CDB7DEB7A5E3B0E0E5E3F0E0908184E0FD
:1005C00089278C93CF91DF91FF91EF91BF91AF91EC
:1005D0009F918F910F900FBE0F901F901895DF93F2
:1005E000CF93CDB7DEB7AFE5B0E0EFE5F0E08081C7
:1005F00080688C93ABE5B0E0EBE5F0E0808180644F
:100600008C93A5E5B0E0E5E5F0E0808182608C9315
:10061000CF91DF910895DF93CF93CDB7DEB7E4E3B9
:10062000F0E0808162E041E00E9436000E94EF022B
:06063000FFCFF894FFCF9C
:00000001FF
