:100000000C942A000C943C000C943C000C943C0092
:100010000C943C000C943C000C943C000C943C0070
:100020000C943C000C943C000C943C000C943C0060
:100030000C943C000C943C000C943C000C943C0050
:100040000C943C000C943C000C943C000C943C0040
:100050000C943C0011241FBECFE5D8E0DEBFCDBF1D
:1000600010E0A0E6B0E001C01D92A136B107E1F7B3
:100070000E94DB030C94E6030C940000DF93CF9303
:10008000CDB7DEB727970FB6F894DEBF0FBECDBF52
:1000900089836A834B838981843008F0EEC08A812A
:1000A000883008F0EAC08B81813009F06FC0898107
:1000B000282F30E03F832E838E819F8181309105F0
:1000C00049F12E813F81223031052CF48E819F81B0
:1000D000009761F0D2C02E813F812230310571F14D
:1000E0008E819F8183309105E9F1C7C0AAE3B0E01A
:1000F000EAE3F0E08081482F8A81282F30E081E018
:1001000090E0022E02C0880F991F0A94E2F7842B18
:100110008C93B3C0A7E3B0E0E7E3F0E08081482F21
:100120008A81282F30E081E090E0022E02C0880F03
:10013000991F0A94E2F7842B8C939FC0A4E3B0E04C
:10014000E4E3F0E08081482F8A81282F30E081E0CD
:1001500090E0022E02C0880F991F0A94E2F7842BC8
:100160008C938BC0A1E3B0E0E1E3F0E08081482F05
:100170008A81282F30E081E090E0022E02C0880FB3
:10018000991F0A94E2F7842B8C9377C08B81882384
:1001900009F073C08981282F30E03D832C838C8146
:1001A0009D818130910559F12C813D8122303105AD
:1001B0002CF48C819D81009769F05FC02C813D817A
:1001C0002230310589F18C819D818330910509F4BC
:1001D00040C053C0AAE3B0E0EAE3F0E08081482FDA
:1001E0008A81282F30E081E090E0022E02C0880F43
:1001F000991F0A94E2F7809584238C933EC0A7E36D
:10020000B0E0E7E3F0E08081482F8A81282F30E0DA
:1002100081E090E0022E02C0880F991F0A94E2F755
:10022000809584238C9329C0A4E3B0E0E4E3F0E05C
:100230008081482F8A81282F30E081E090E0022ED3
:1002400002C0880F991F0A94E2F7809584238C934B
:1002500014C0A1E3B0E0E1E3F0E08081482F8A819F
:10026000282F30E081E090E0022E02C0880F991F15
:100270000A94E2F7809584238C9327960FB6F8941E
:10028000DEBF0FBECDBFCF91DF910895DF93CF9337
:10029000CDB7DEB727970FB6F894DEBF0FBECDBF40
:1002A00089836A834B838981843008F0EEC08A8118
:1002B000883008F0EAC08B81882309F074C08981F6
:1002C000282F30E03F832E838E819F8181309105DE
:1002D00059F12E813F81223031052CF48E819F818E
:1002E000009769F0D2C02E813F812230310589F11B
:1002F0008E819F818330910509F440C0C6C0ABE375
:10030000B0E0EBE3F0E08081482F8A81282F30E0D5
:1003100081E090E0022E02C0880F991F0A94E2F754
:10032000809584238C93B1C0A8E3B0E0E8E3F0E0CB
:100330008081482F8A81282F30E081E090E0022ED2
:1003400002C0880F991F0A94E2F7809584238C934A
:100350009CC0A5E3B0E0E5E3F0E08081482F8A810E
:10036000282F30E081E090E0022E02C0880F991F14
:100370000A94E2F7809584238C9387C0A2E3B0E0CF
:10038000E2E3F0E08081482F8A81282F30E081E08D
:1003900090E0022E02C0880F991F0A94E2F7809520
:1003A00084238C9372C08B81813009F06EC0898167
:1003B000282F30E03D832C838C819D8181309105F5
:1003C00049F12C813D81223031052CF48C819D81B5
:1003D000009761F05AC02C813D812230310571F1C6
:1003E0008C819D8183309105E9F14FC0ABE3B0E092
:1003F000EBE3F0E08081482F8A81282F30E081E014
:1004000090E0022E02C0880F991F0A94E2F7842B15
:100410008C933BC0A8E3B0E0E8E3F0E08081482F94
:100420008A81282F30E081E090E0022E02C0880F00
:10043000991F0A94E2F7842B8C9327C0A5E3B0E0C0
:10044000E5E3F0E08081482F8A81282F30E081E0C9
:1004500090E0022E02C0880F991F0A94E2F7842BC5
:100460008C9313C0A2E3B0E0E2E3F0E08081482F78
:100470008A81282F30E081E090E0022E02C0880FB0
:10048000991F0A94E2F7842B8C9327960FB6F89461
:10049000DEBF0FBECDBFCF91DF910895DF93CF9325
:1004A00000D000D00F92CDB7DEB78A836B8319825C
:1004B0008A81843008F06CC08B81883008F068C075
:1004C0008A81282F30E03D832C834C815D8141302F
:1004D000510541F18C819D818230910534F42C814C
:1004E0003D812115310561F055C04C815D8142305F
:1004F000510551F18C819D8183309105B9F14AC03C
:10050000E9E3F0E08081282F30E08B81882F90E0B4
:10051000A90102C0559547958A95E2F7CA018170F5
:10052000898338C0E6E3F0E08081282F30E08B81BA
:10053000882F90E0A90102C0559547958A95E2F76A
:10054000CA018170898326C0E3E3F0E08081282F0F
:1005500030E08B81882F90E0A90102C05595479526
:100560008A95E2F7CA018170898314C0E0E3F0E064
:100570008081282F30E08B81882F90E0A90102C074
:10058000559547958A95E2F7CA018170898302C023
:100590008FEF898389810F900F900F900F900F90AC
:1005A000CF91DF910895DF93CF93CDB7DEB781E090
:1005B00064E041E00E943E0081E065E041E00E948D
:1005C0003E0081E066E040E00E943E0081E067E09E
:1005D00041E00E943E00ADE2B0E0EDE2F0E080815B
:1005E00080618C93ADE2B0E0EDE2F0E08081806468
:1005F0008C93CF91DF910895DF93CF93CDB7DEB782
:1006000081E064E040E00E943E0081E065E040E07F
:100610000E943E0081E066E041E00E943E0081E0F1
:1006200067E040E00E943E00ADE2B0E0EDE2F0E0C5
:1006300080818F7E8C93ADE2B0E0EDE2F0E08081CE
:1006400080648C93CF91DF910895DF93CF930F92C5
:10065000CDB7DEB78983EFE2F0E089818083EEE2F7
:10066000F0E080818823DCF70F90CF91DF9108952F
:10067000DF93CF93CDB7DEB7EEE2F0E08081882341
:10068000DCF7EFE2F0E08081CF91DF910895DF9316
:10069000CF93CDB7DEB70E946C030E94D302CF91F7
:1006A000DF910895DF93CF93CDB7DEB70E94CC03DF
:1006B00080936000809160000E94B203CF91DF912F
:1006C0000895DF93CF93CDB7DEB7809160000E948D
:1006D0002503CF91DF910895DF93CF93CDB7DEB798
:1006E000A0E4B0E0E0E4F0E0808180688C93AAE2CE
:1006F000B0E0EAE2F0E0808188608C93AAE2B0E0AA
:10070000EAE2F0E0808180618C93A0E4B0E0E0E474
:10071000F0E080818F7B8C93A0E4B0E0E0E4F0E037
:1007200080818F778C93A0E4B0E0E0E4F0E08081FA
:10073000877F8C93A0E4B0E0E0E4F0E08081826009
:100740008C93A0E4B0E0E0E4F0E0808184608C93DE
:10075000E0E4F0E01082E9E2F0E087E68083CF9108
:10076000DF910895DF93CF930F92CDB7DEB78983E2
:10077000EBE2F0E08081829586958770882F90E08B
:10078000817090700097A1F3ECE2F0E089818083A2
:100790000F90CF91DF910895DF93CF93CDB7DEB760
:1007A000EBE2F0E080818823DCF7ECE2F0E080818E
:1007B000CF91DF910895DF93CF93CDB7DEB70E943D
:1007C00047030E9452030E946103FBCFF894FFCFBE
:00000001FF
